:100EBD000A08407924301912027800100813000036
:0C0ECD00000000000000012B00011200DA
:100B7D00C2A0C2A1C2A2C2A3C2A4C2A5C2A6C2A73C
:100B8D00C280C281C282C283C2B7D2A8D2AAD28A7F
:070B9D00D2AFD2AB8508A026
:100BA400E4F530F52FF52EF52D752100752245124B
:100BB4000E01C293D290D291D29220950BE512707D
:100BC40007F521F522020C60D293C290D291D29201
:100BD40020940BE5127007F521752201807E209583
:100BE4000BE5127007F521752202807020960BE543
:100BF400127007F5217522038062D293D290C291BC
:100C0400D29220940BE5127007F521752204804CD2
:100C140020950BE5127007F521752205803E20967C
:100C24000BE5127007F5217522068030D293D2901D
:100C3400D291C29220940BE5127007F52175220718
:100C4400801A20950BE5127007F521752208800C97
:100C5400209613E512700FF5217522097512017F94
:100C64002C7E01120E9DE522644545217005F51286
:100C7400020BAD852113852214E52B25E02423F8EE
:100C8400A61308A614D3E52B64809480402FE4F5C2
:100C94002CC3E52B6480F8E52C648098501FE52C68
:100CA40025E02423F8E6FE08E6FFC3E52B952C2572
:0F0CB400E02413F8A60608A607052C80D4052B0C
:030CC300020BA47D
:100CC600AE15AF167C007D0A120B5DE5142FFBE511
:100CD600133EFAAE17AF187D64120B5DEF2BFBEED9
:100CE6003AFAAE19AF1A7C037DE8120B5DEF2BFDC5
:100CF600EE3AFC120AA38F1E8E1D8D1C8C1BE4FB84
:100D0600FAF978401208F88F1E8E1D8D1C8C1B7FF9
:100D1600487EE17D8A7C3FAB1EAA1DA91CA81B123A
:100D260008F8A804A905AA06AB077F007E247D74EF
:100D36007C49120A01E4FBFA791078C11208078F80
:100D46001E8E1D8D1C8C1BAB1EAA1DA91CA81BE488
:100D5600FFFE7D807C471208038F1E8E1D8D1C8C26
:0F0D66001B120ADC8E1F8F208F8BE51FF58D224D
:060F0600758910D28E2255
:100EDA00C28EE4F513F514F515F516F517F518F5A0
:060EEA0019F51AF52B2298
:03000300020E5F8B
:100E5F00C0E0C0F0C083C082C0D075D000C000C059
:100E6F0001C002C003C004C005C006C007120CC6F3
:100E7F00120F06D007D006D005D004D003D002D071
:0E0E8F0001D000D0D0D082D083D0F0D0E0329D
:03001300020EFEDC
:080EFE00C0E0120EDAD0E03270
:03001B00020EF0E2
:0E0EF000C0E085208BE51FF58DB2B7D0E03253
:100E9D00E4FDFCC3ED9FEC9E5015E4FBFA0BBB008B
:0F0EAD00010AEB647B4A70F50DBD00010C80E477
:010EBC002213
:100E0100E4F9E91460181460271460362403704271
:100E11007408251AF8E6F5A0D280C281800C740806
:100E21002518F8E6F5A0C280D281C282C283802251
:100E310074082516F8E6F5A0C280C281D282C28369
:100E4100801074082514F8E6F5A0C280C281C28220
:0D0E5100D2837F017E00120E9D09B904A519
:010E5E002271
:10080000020B48E86480F8E933E83360110460F0D3
:10081000ED33EC337009E8FCE9FDEAFEEBFF22045E
:1008200060DED3EB9FEA9EE99DE8C2E78CF0C2F759
:1008300095F0400CE8CCF8E9CDF9EACEFAEBCFFB25
:10084000120B1385D0F05804700320D5B3E8047060
:10085000075002B2D5020B5292D5EC0460F7E4CCFB
:10086000C0E0C398F8603B94186008400DD0E0FBEE
:10087000020B2AE4FBFAC9FC8028E830E406E4C94C
:10088000FBE4CAFCE830E305E4C9CACBFCE8540742
:100890006010F8C3E913F9EA13FAEB13FBEC13FC4D
:1008A000D8F130F52FC3E49CFCEF9BFFEE9AFEEDF0
:1008B00099FDD0E0FBEF4E4D4C701222DB03020B92
:1008C0004FEC2CFCEF33FFEE33FEED33FDED30E764
:1008D000EB020B2AEF2BFFEE3AFEED39FDD0E0FBE9
:1008E00050130BBB0003020B52ED13FDEE13FEEF92
:0808F00013FFEC13FC020B2ABC
:1008F800EC4D6011E8497017ED33EC3304600DE4FA
:10090800FCFFFEFD22E933E8330470F8020B4812BD
:100918000B1358046009E4CC2481500628500902BE
:100928000B52284003020B4FC0E0EB4A7044B980D9
:1009380006D0E0FB020B3EEF4E701CBD8008EBFFBB
:10094800EAFEE9FD80EBE98DF0A4FEE5F00209E19D
:10095800E9CDF9EAFEEBFFEF89F0A4FCE5F0CE89DA
:10096800F0A42EFFE435F0CD89F0A42DFEE435F097
:100978008067EF4E7005BD80D780C3EF8BF0A4ACC5
:10098800F0EE8BF0A42CFCE435F0F8EF8AF0A42C00
:10099800E5F038FCE433CB8DF0A42CFCE5F03BF813
:1009A800EE8AF0A42CFCE5F038F8E433CF89F0A403
:1009B8002CFCE5F038CF3400CE89F0A42FFFE5F009
:1009C8003EFEE433C98DF0A42EFEE5F039CD8AF061
:1009D800A42FFFE5F03EFEE43DFD33D0E0FB5007D9
:1009E8000BBB000F020B52EC2CFCEF33FFEE33FE77
:0609F800ED33FD020B2AA5
:1009FE00020B52EC5D046005E859047003020B48CB
:100A0E00120B13580460F6EC4860F2EC7004FDFE15
:100A1E00FF22C860DB2481C85009C39860025006CB
:100A2E00020B4F9850CAF582E9294B4A7005AB82EA
:100A3E00020B3E75F0007C1A7880C3EF9BEE9AEDA8
:100A4E0099400DC3EF9BFFEE9AFEED99FDE842F043
:100A5E00DC23ACF0D0E0FFD0E0FED0E0FDAB822096
:100A6E00E7101BEB60BAEC2CFCEF33FFEE33FEED20
:100A7E0033FD020B2AE803F830E705C0F075F000ED
:100A8E00EF2FFFEE33FEED33FD40B830E7C280AA04
:100A9E0075F020800E75F010800575F0087D007ED3
:100AAE00007F003392D530D503120B6FEC3340101C
:100ABE00EF33FFEE33FEED33FDEC33FCD5F0ED22DC
:0E0ACE00E5F0247EA2D513CC92E7CDCEFF2218
:100ADC00EDD2E7CD33EC3392D524814006E4FFFE12
:100AEC00FDFC22FCE4CFCECDCC24E0501174FF8071
:100AFC00EDC3CC13CCCD13CDCE13CECF13CF04700E
:070B0C00F030D5DE020B6F93
:100B1300E9D2E7C933E833F892D5EDD2E7CD33EC28
:070B230033FC5002B2D522A1
:100B2A00EC30E7100FBF000C0EBE00080DBD00042C
:100B3A000BEB6014A2D5EB13FCED92E7FD2274FFD8
:100B4A00FCFDFEFF22E480F8A2D574FF13FC7D8031
:030B5A00E480EF45
:03000000020D7579
:0C0D7500787FE4F6D8FD758130020DBCDB
:100B5D00EF8DF0A4A8F0CF8CF0A428CE8DF0A42EAC
:020B6D00FE2266
:0E0B6F00C3E49FFFE49EFEE49DFDE49CFC2297
:100D8100020B7DE493A3F8E493A34003F68001F200
:100D910008DFF48029E493A3F85407240CC8C33373
:100DA100C4540F4420C8834004F456800146F6DF42
:100DB100E4800B0102040810204080900EBDE47E07
:100DC100019360BCA3FF543F30E509541FFEE49337
:100DD100A360010ECF54C025E060A840B8E493A3FE
:100DE100FAE493A3F8E493A3C8C582C8CAC583CA29
:100DF100F0A3C8C582C8CAC583CADFE9DEE780BEE1
:010ED9000018
:00000001FF
